{"abi":[{"type":"constructor","inputs":[],"stateMutability":"nonpayable"},{"type":"function","name":"approve","inputs":[{"name":"to","type":"address","internalType":"address"},{"name":"tokenId","type":"uint256","internalType":"uint256"}],"outputs":[],"stateMutability":"nonpayable"},{"type":"function","name":"balanceOf","inputs":[{"name":"owner","type":"address","internalType":"address"}],"outputs":[{"name":"","type":"uint256","internalType":"uint256"}],"stateMutability":"view"},{"type":"function","name":"getApproved","inputs":[{"name":"tokenId","type":"uint256","internalType":"uint256"}],"outputs":[{"name":"","type":"address","internalType":"address"}],"stateMutability":"view"},{"type":"function","name":"isApprovedForAll","inputs":[{"name":"owner","type":"address","internalType":"address"},{"name":"operator","type":"address","internalType":"address"}],"outputs":[{"name":"","type":"bool","internalType":"bool"}],"stateMutability":"view"},{"type":"function","name":"mintAuthNFT","inputs":[{"name":"to","type":"address","internalType":"address"},{"name":"_tokenURI","type":"string","internalType":"string"},{"name":"valuation","type":"uint256","internalType":"uint256"}],"outputs":[{"name":"","type":"uint256","internalType":"uint256"}],"stateMutability":"nonpayable"},{"type":"function","name":"name","inputs":[],"outputs":[{"name":"","type":"string","internalType":"string"}],"stateMutability":"view"},{"type":"function","name":"ownerOf","inputs":[{"name":"tokenId","type":"uint256","internalType":"uint256"}],"outputs":[{"name":"","type":"address","internalType":"address"}],"stateMutability":"view"},{"type":"function","name":"safeTransferFrom","inputs":[{"name":"from","type":"address","internalType":"address"},{"name":"to","type":"address","internalType":"address"},{"name":"tokenId","type":"uint256","internalType":"uint256"}],"outputs":[],"stateMutability":"nonpayable"},{"type":"function","name":"safeTransferFrom","inputs":[{"name":"from","type":"address","internalType":"address"},{"name":"to","type":"address","internalType":"address"},{"name":"tokenId","type":"uint256","internalType":"uint256"},{"name":"data","type":"bytes","internalType":"bytes"}],"outputs":[],"stateMutability":"nonpayable"},{"type":"function","name":"setApprovalForAll","inputs":[{"name":"operator","type":"address","internalType":"address"},{"name":"approved","type":"bool","internalType":"bool"}],"outputs":[],"stateMutability":"nonpayable"},{"type":"function","name":"supportsInterface","inputs":[{"name":"interfaceId","type":"bytes4","internalType":"bytes4"}],"outputs":[{"name":"","type":"bool","internalType":"bool"}],"stateMutability":"view"},{"type":"function","name":"symbol","inputs":[],"outputs":[{"name":"","type":"string","internalType":"string"}],"stateMutability":"view"},{"type":"function","name":"tokenURI","inputs":[{"name":"tokenId","type":"uint256","internalType":"uint256"}],"outputs":[{"name":"","type":"string","internalType":"string"}],"stateMutability":"view"},{"type":"function","name":"transferFrom","inputs":[{"name":"from","type":"address","internalType":"address"},{"name":"to","type":"address","internalType":"address"},{"name":"tokenId","type":"uint256","internalType":"uint256"}],"outputs":[],"stateMutability":"nonpayable"},{"type":"event","name":"Approval","inputs":[{"name":"owner","type":"address","indexed":true,"internalType":"address"},{"name":"approved","type":"address","indexed":true,"internalType":"address"},{"name":"tokenId","type":"uint256","indexed":true,"internalType":"uint256"}],"anonymous":false},{"type":"event","name":"ApprovalForAll","inputs":[{"name":"owner","type":"address","indexed":true,"internalType":"address"},{"name":"operator","type":"address","indexed":true,"internalType":"address"},{"name":"approved","type":"bool","indexed":false,"internalType":"bool"}],"anonymous":false},{"type":"event","name":"BatchMetadataUpdate","inputs":[{"name":"_fromTokenId","type":"uint256","indexed":false,"internalType":"uint256"},{"name":"_toTokenId","type":"uint256","indexed":false,"internalType":"uint256"}],"anonymous":false},{"type":"event","name":"MetadataUpdate","inputs":[{"name":"_tokenId","type":"uint256","indexed":false,"internalType":"uint256"}],"anonymous":false},{"type":"event","name":"Transfer","inputs":[{"name":"from","type":"address","indexed":true,"internalType":"address"},{"name":"to","type":"address","indexed":true,"internalType":"address"},{"name":"tokenId","type":"uint256","indexed":true,"internalType":"uint256"}],"anonymous":false},{"type":"error","name":"ERC721IncorrectOwner","inputs":[{"name":"sender","type":"address","internalType":"address"},{"name":"tokenId","type":"uint256","internalType":"uint256"},{"name":"owner","type":"address","internalType":"address"}]},{"type":"error","name":"ERC721InsufficientApproval","inputs":[{"name":"operator","type":"address","internalType":"address"},{"name":"tokenId","type":"uint256","internalType":"uint256"}]},{"type":"error","name":"ERC721InvalidApprover","inputs":[{"name":"approver","type":"address","internalType":"address"}]},{"type":"error","name":"ERC721InvalidOperator","inputs":[{"name":"operator","type":"address","internalType":"address"}]},{"type":"error","name":"ERC721InvalidOwner","inputs":[{"name":"owner","type":"address","internalType":"address"}]},{"type":"error","name":"ERC721InvalidReceiver","inputs":[{"name":"receiver","type":"address","internalType":"address"}]},{"type":"error","name":"ERC721InvalidSender","inputs":[{"name":"sender","type":"address","internalType":"address"}]},{"type":"error","name":"ERC721NonexistentToken","inputs":[{"name":"tokenId","type":"uint256","internalType":"uint256"}]}],"bytecode":{"object":"0x60803462000332576001600160401b0390604090808201838111828210176200025057825260078152602092664175746852574160c81b84830152825193838501858110838211176200025057845260048552634152574160e01b8186015282519082821162000250575f54916001948584811c9416801562000327575b8385101462000231578190601f94858111620002d4575b50839085831160011462000270575f9262000264575b50505f19600383901b1c191690851b175f555b8551928311620002505783548481811c9116801562000245575b828210146200023157828111620001e9575b5080918311600114620001845750819293945f9262000178575b50505f19600383901b1c191690821b1790555b5f7fdffd15b7cbcb32988993bef560e47934f70e45a5a0e6f674728a009bbec74eb3557fdffd15b7cbcb32988993bef560e47934f70e45a5a0e6f674728a009bbec74eb480546001600160a01b031916331790555161116c9081620003378239f35b015190505f8062000103565b90601f19831695845f52825f20925f905b888210620001d15750508385969710620001b8575b505050811b01905562000116565b01515f1960f88460031b161c191690555f8080620001aa565b80878596829496860151815501950193019062000195565b845f52815f208380860160051c82019284871062000227575b0160051c019085905b8281106200021b575050620000e9565b5f81550185906200020b565b9250819262000202565b634e487b7160e01b5f52602260045260245ffd5b90607f1690620000d7565b634e487b7160e01b5f52604160045260245ffd5b015190505f80620000aa565b90879350601f198316915f8052855f20925f5b87828210620002bd5750508411620002a4575b505050811b015f55620000bd565b01515f1960f88460031b161c191690555f808062000296565b8385015186558b9790950194938401930162000283565b9091505f8052835f208580850160051c8201928686106200031d575b918991869594930160051c01915b8281106200030e57505062000094565b5f8155859450899101620002fe565b92508192620002f0565b93607f16936200007d565b5f80fdfe6080604090808252600480361015610015575f80fd5b5f3560e01c91826301ffc9a714610c1b57508163061573b31461065f57816306fdde03146105b2578163081812fc1461057a578163095ea7b31461049f57816323b872dd1461048857816342842e0e146104605781636352211e1461043157816370a08231146103dd57816395d89b41146102fa578163a22cb4651461025f578163b88d4fde146101fe578163c87b56dd1461010b575063e985e9c5146100ba575f80fd5b346101075780600319360112610107576020906100d5610c9f565b6100dd610cb5565b9060018060a01b038091165f5260058452825f2091165f52825260ff815f20541690519015158152f35b5f80fd5b9050346101075760209081600319360112610107573561012a816110fc565b505f5260068152815f2091805180935f90805461014681610de2565b91828552600191876001821691825f146101d7575050600114610197575b5050506101939291610177910385610cfb565b5f815161018381610ccb565b5251928284938452830190610d6f565b0390f35b8693505f92919252825f20915f925b8284106101bf5750505082010181610177610193610164565b8054848a0186015288955087949093019281016101a6565b60ff19168782015293151560051b8601909301935084925061017791506101939050610164565b3461010757608036600319011261010757610217610c9f565b61021f610cb5565b9060643567ffffffffffffffff811161010757366023820112156101075761025d9381602461025393369301359101610d39565b9160443591610fb0565b005b8234610107578060031936011261010757610278610c9f565b9060243591821515809303610107576001600160a01b03169283156102e55750335f526005602052805f20835f52602052805f2060ff1981541660ff8416179055519081527f17307eab39ab6107e8899845ad3d59bd9653f200f220920489ca2b5937696c3160203392a3005b836024925191630b61174360e31b8352820152fd5b8234610107575f366003190112610107578051905f90826001926001549361032185610de2565b90818452602095866001821691825f146103bb575050600114610360575b50506101939291610351910385610cfb565b51928284938452830190610d6f565b9085925060015f527fb10e2d527612073b26eecdfd717e6a320cf44b4afac2b0732d9fcbe2b7fa0cf6915f925b8284106103a3575050508201018161035161033f565b8054848a01860152889550879490930192810161038d565b60ff19168682015292151560051b85019092019250839150610351905061033f565b8234610107576020366003190112610107576001600160a01b036103ff610c9f565b16801561041b57602092505f5260038252805f20549051908152f35b81516322718ad960e21b81525f81850152602490fd5b82346101075760203660031901126101075761044f602092356110fc565b90516001600160a01b039091168152f35b82346101075761025d9061047336610dad565b9192519261048084610ccb565b5f8452610fb0565b346101075761025d61049936610dad565b91610e1a565b82346101075780600319360112610107576104b8610c9f565b916024356104c5816110fc565b33151580610567575b80610540575b61052a576001600160a01b039485169482918691167f8c5be1e5ebec7d5bd14f71427d1e84f3dd0314c0f7b2291e5b200ac8c7c3b9255f80a45f526020525f20906001600160601b0360a01b8254161790555f80f35b835163a9fbf51f60e01b81523381850152602490fd5b5060018060a01b0381165f526005602052835f20335f5260205260ff845f205416156104d4565b506001600160a01b0381163314156104ce565b823461010757602036600319011261010757816020923561059a816110fc565b505f52825260018060a01b03815f2054169051908152f35b8234610107575f366003190112610107578051905f90825f54926105d584610de2565b808352602094600190866001821691825f146103bb5750506001146106065750506101939291610351910385610cfb565b5f80805286935091907f290decd9548b62a8d60345a988386fc84ba6bc95484008f6362f93160ef3e5635b828410610647575050508201018161035161033f565b8054848a018601528895508794909301928101610631565b9050346101075760603660031901126101075761067a610c9f565b9160249167ffffffffffffffff83358181116101075736602382011215610107576106ad90369086818601359101610d39565b6001600160a01b03959091908087168015610bd957835115610b975760443515610b49577fdffd15b7cbcb32988993bef560e47934f70e45a5a0e6f674728a009bbec74eb3938454975f1993848a1015610b0757600196878b0190818c11610af5578560029d8c938e9355825f5260209e8f91818352855f205416918215159586610ac5575b845f52600382525f208d8154019055845f52528c5f20826001600160601b0360a01b8254161790557fddf252ad1be2c89b69c2b068fc378daa952ba7f163c4a11628f55a4df523b3ef5f80a4610ab1576001600160a01b03165f9081527fdffd15b7cbcb32988993bef560e47934f70e45a5a0e6f674728a009bbec74eb56020818152604083208c8452808e528b8420805460ff19168b1790559190528a82528b52888120604435908801557fdffd15b7cbcb32988993bef560e47934f70e45a5a0e6f674728a009bbec74eb78b52889020825193908685116109f05761081a8154610de2565b948c601f96878111610a6c575b5050808d80888311600114610a0d57505f91610a02575b5087828b1b9260031b1c19161790555b5f527fdffd15b7cbcb32988993bef560e47934f70e45a5a0e6f674728a009bbec74eb68a52875f20805490680100000000000000008210156109f0578782018082558210156109de57908a915f528b5f200155885f5260068a52875f209682519586116109cd5750506108c18654610de2565b82811161098a575b5088918411600114610929579383949184925f9561091e575b50501b9260031b1c19161790555b7ff8e1a15aba9398e019f0b49df1a4fde98ee17ae345cb5f6b5e2c27f5033e8ce7838251848152a151908152f35b015193505f806108e2565b9190601f19841692865f52848a5f20945f5b8c89838310610973575050501061095b575b50505050811b0190556108f0565b01519060f88460031b161c191690555f80808061094d565b86860151895590970196948501948893500161093b565b865f52895f208380870160051c8201928c88106109c4575b0160051c019086905b8281106109b95750506108c9565b5f81550186906109ab565b925081926109a2565b604190634e487b7160e01b5f52525ffd5b8260328a634e487b7160e01b5f52525ffd5b8260418a634e487b7160e01b5f52525ffd5b90508501515f61083e565b908b9350601f198316855f52825f20925f905b828210610a535750508311610a3c575b5050811b01905561084e565b8701518960f88460031b161c191690555f80610a30565b838b015185558e96909401939283019290810190610a20565b835f5287825f209181850160051c8301938510610aa8575b0160051c01908a905b828110610a9d57508e9150610827565b5f8155018a90610a8d565b92508192610a84565b5087516339e3563760e11b81525f81890152fd5b5f86815260046020526040902080546001600160a01b0319169055835f5260038252805f208c8154019055610733565b8360118b634e487b7160e01b5f52525ffd5b885162461bcd60e51b81526020818a01526019818401527f546f6b656e20494420636f756e746572206f766572666c6f77000000000000006044820152606490fd5b855162461bcd60e51b81526020818701526023818901527f56616c756174696f6e206d7573742062652067726561746572207468616e207a60448201526265726f60e81b6064820152608490fd5b855162461bcd60e51b81526020818701526019818901527f546f6b656e205552492063616e6e6f7420626520656d707479000000000000006044820152606490fd5b855162461bcd60e51b8152602081870152601b818901527f43616e6e6f74206d696e7420746f207a65726f206164647265737300000000006044820152606490fd5b903461010757602036600319011261010757359063ffffffff60e01b821680920361010757602091632483248360e11b8114908115610c5c575b5015158152f35b6380ac58cd60e01b811491508115610c8e575b8115610c7d575b5083610c55565b6301ffc9a760e01b14905083610c76565b635b5e139f60e01b81149150610c6f565b600435906001600160a01b038216820361010757565b602435906001600160a01b038216820361010757565b6020810190811067ffffffffffffffff821117610ce757604052565b634e487b7160e01b5f52604160045260245ffd5b90601f8019910116810190811067ffffffffffffffff821117610ce757604052565b67ffffffffffffffff8111610ce757601f01601f191660200190565b929192610d4582610d1d565b91610d536040519384610cfb565b829481845281830111610107578281602093845f960137010152565b91908251928382525f5b848110610d99575050825f602080949584010152601f8019910116010190565b602081830181015184830182015201610d79565b6060906003190112610107576001600160a01b0390600435828116810361010757916024359081168103610107579060443590565b90600182811c92168015610e10575b6020831014610dfc57565b634e487b7160e01b5f52602260045260245ffd5b91607f1691610df1565b6001600160a01b039182169290918315610f9857815f52602092600284528260409583875f2054169533151580610f06575b5060029087610ed5575b825f5260038152885f2060018154019055835f5252865f20816001600160601b0360a01b825416179055857fddf252ad1be2c89b69c2b068fc378daa952ba7f163c4a11628f55a4df523b3ef5f80a41692838303610eb45750505050565b6064945051926364283d7b60e01b8452600484015260248301526044820152fd5b5f84815260046020526040812080546001600160a01b03191690558881526003825289902080545f19019055610e56565b9192509080610f57575b15610f1e579084915f610e4c565b868587610f3b576024915190637e27328960e01b82526004820152fd5b604491519063177e802f60e01b82523360048301526024820152fd5b503386148015610f7c575b80610f105750845f52600481523384885f20541614610f10565b50855f5260058152865f20335f52815260ff875f205416610f62565b604051633250574960e11b81525f6004820152602490fd5b9192610fbd848385610e1a565b813b610fca575b50505050565b604051630a85bd0160e11b8082523360048301526001600160a01b0394851660248301526044820195909552608060648201526020959390921693919085908290819061101b906084830190610d6f565b03815f885af15f91816110bc575b50611086575050503d5f1461107f573d61104281610d1d565b906110506040519283610cfb565b81523d5f8483013e5b8051928361107a57604051633250574960e11b815260048101849052602490fd5b019050fd5b6060611059565b9193506001600160e01b0319909116036110a457505f808080610fc4565b60249060405190633250574960e11b82526004820152fd5b9091508581813d83116110f5575b6110d48183610cfb565b8101031261010757516001600160e01b03198116810361010757905f611029565b503d6110ca565b5f818152600260205260409020546001600160a01b031690811561111e575090565b60249060405190637e27328960e01b82526004820152fdfea2646970667358221220f7e42843777018cd871e52260eb964e95d34de69a76662eab13691567f058c5364736f6c63430008180033","linkReferences":{}},"methodIdentifiers":{"approve(address,uint256)":"095ea7b3","balanceOf(address)":"70a08231","getApproved(uint256)":"081812fc","isApprovedForAll(address,address)":"e985e9c5","mintAuthNFT(address,string,uint256)":"061573b3","name()":"06fdde03","ownerOf(uint256)":"6352211e","safeTransferFrom(address,address,uint256)":"42842e0e","safeTransferFrom(address,address,uint256,bytes)":"b88d4fde","setApprovalForAll(address,bool)":"a22cb465","supportsInterface(bytes4)":"01ffc9a7","symbol()":"95d89b41","tokenURI(uint256)":"c87b56dd","transferFrom(address,address,uint256)":"23b872dd"},"id":56}